{
  "address": "0x944423F3b395B75B161E826e891b3BD9e7F5068f",
  "abi": [
    {
      "inputs": [
        {
          "internalType": "address",
          "name": "l1Token_",
          "type": "address"
        },
        {
          "internalType": "address",
          "name": "l2Token_",
          "type": "address"
        },
        {
          "internalType": "address",
          "name": "l1TokenBridge_",
          "type": "address"
        }
      ],
      "stateMutability": "nonpayable",
      "type": "constructor"
    },
    {
      "inputs": [],
      "name": "InsufficientWstETHReceived",
      "type": "error"
    },
    {
      "inputs": [],
      "name": "WrapETHFailed",
      "type": "error"
    },
    {
      "inputs": [],
      "name": "ZeroAddress",
      "type": "error"
    },
    {
      "inputs": [],
      "name": "ZeroAmount",
      "type": "error"
    },
    {
      "anonymous": false,
      "inputs": [
        {
          "indexed": true,
          "internalType": "address",
          "name": "staker",
          "type": "address"
        },
        {
          "indexed": true,
          "internalType": "uint256",
          "name": "amount",
          "type": "uint256"
        }
      ],
      "name": "Stake",
      "type": "event"
    },
    {
      "inputs": [],
      "name": "l1Token",
      "outputs": [
        {
          "internalType": "contract IERC20",
          "name": "",
          "type": "address"
        }
      ],
      "stateMutability": "view",
      "type": "function"
    },
    {
      "inputs": [],
      "name": "l1TokenBridge",
      "outputs": [
        {
          "internalType": "contract IL1TokenBridge",
          "name": "",
          "type": "address"
        }
      ],
      "stateMutability": "view",
      "type": "function"
    },
    {
      "inputs": [],
      "name": "l2Token",
      "outputs": [
        {
          "internalType": "address",
          "name": "",
          "type": "address"
        }
      ],
      "stateMutability": "view",
      "type": "function"
    },
    {
      "inputs": [
        {
          "internalType": "address",
          "name": "to",
          "type": "address"
        },
        {
          "internalType": "uint32",
          "name": "l2Gas_",
          "type": "uint32"
        },
        {
          "internalType": "bytes",
          "name": "data_",
          "type": "bytes"
        }
      ],
      "name": "stakeETH",
      "outputs": [],
      "stateMutability": "payable",
      "type": "function"
    }
  ],
  "transactionHash": "0xec2e420e69d7549df10de256251e2c301f79b7f903a1f4f26ddf8ad1ab605d95",
  "args": [
    "0xB82381A3fBD3FaFA77B3a7bE693342618240067b",
    "0x9b72b0D75e2eb87579694E842741738d3a9C311E",
    "0xCB4619437C5Bb35d26346DeA9FeB9bD73c4f2633"
  ],
  "numDeployments": 1,
  "solcInputHash": "ce069893e9f9d5099439824520d9f7b3",
  "bytecode": "0x60e060405234801561001057600080fd5b5060405161088d38038061088d83398101604081905261002f9161006d565b60016000556001600160a01b0392831660805290821660a0521660c0526100b0565b80516001600160a01b038116811461006857600080fd5b919050565b60008060006060848603121561008257600080fd5b61008b84610051565b925061009960208501610051565b91506100a760408501610051565b90509250925092565b60805160a05160c05161078061010d600039600081816056015281816103f801526104d201526000818160b3015261052101526000818160fc0152818161021d015281816103030152818161042701526104ff01526107806000f3fe60806040526004361061003f5760003560e01c806336c717c11461004457806356eff267146100a15780638fdb9202146100d5578063c01e1bd6146100ea575b600080fd5b34801561005057600080fd5b506100787f000000000000000000000000000000000000000000000000000000000000000081565b60405173ffffffffffffffffffffffffffffffffffffffff909116815260200160405180910390f35b3480156100ad57600080fd5b506100787f000000000000000000000000000000000000000000000000000000000000000081565b6100e86100e33660046105bf565b61011e565b005b3480156100f657600080fd5b506100787f000000000000000000000000000000000000000000000000000000000000000081565b6002600054141561018f576040517f08c379a000000000000000000000000000000000000000000000000000000000815260206004820152601f60248201527f5265656e7472616e637947756172643a207265656e7472616e742063616c6c00604482015260640160405180910390fd5b600260005573ffffffffffffffffffffffffffffffffffffffff84166101e1576040517fd92e233d00000000000000000000000000000000000000000000000000000000815260040160405180910390fd5b3480610219576040517f1f2a200500000000000000000000000000000000000000000000000000000000815260040160405180910390fd5b60007f000000000000000000000000000000000000000000000000000000000000000073ffffffffffffffffffffffffffffffffffffffff163460405160006040518083038185875af1925050503d8060008114610293576040519150601f19603f3d011682016040523d82523d6000602084013e610298565b606091505b50509050806102d3576040517fe83092ab00000000000000000000000000000000000000000000000000000000815260040160405180910390fd5b6040517f70a0823100000000000000000000000000000000000000000000000000000000815230600482015282907f000000000000000000000000000000000000000000000000000000000000000073ffffffffffffffffffffffffffffffffffffffff16906370a0823190602401602060405180830381865afa15801561035f573d6000803e3d6000fd5b505050506040513d601f19601f820116820180604052508101906103839190610673565b10156103bb576040517fcdfc39de00000000000000000000000000000000000000000000000000000000815260040160405180910390fd5b6040517f095ea7b300000000000000000000000000000000000000000000000000000000815273ffffffffffffffffffffffffffffffffffffffff7f000000000000000000000000000000000000000000000000000000000000000081166004830152602482018490527f0000000000000000000000000000000000000000000000000000000000000000169063095ea7b3906044016020604051808303816000875af1158015610470573d6000803e3d6000fd5b505050506040513d601f19601f82011682018060405250810190610494919061068c565b506040517f838b252000000000000000000000000000000000000000000000000000000000815273ffffffffffffffffffffffffffffffffffffffff7f0000000000000000000000000000000000000000000000000000000000000000169063838b252090610553907f0000000000000000000000000000000000000000000000000000000000000000907f000000000000000000000000000000000000000000000000000000000000000090339088908c908c908c906004016106b5565b600060405180830381600087803b15801561056d57600080fd5b505af1158015610581573d6000803e3d6000fd5b50506040518492503391507febedb8b3c678666e7f36970bc8f57abf6d8fa2e828c0da91ea5b75bf68ed101a90600090a35050600160005550505050565b600080600080606085870312156105d557600080fd5b843573ffffffffffffffffffffffffffffffffffffffff811681146105f957600080fd5b9350602085013563ffffffff8116811461061257600080fd5b9250604085013567ffffffffffffffff8082111561062f57600080fd5b818701915087601f83011261064357600080fd5b81358181111561065257600080fd5b88602082850101111561066457600080fd5b95989497505060200194505050565b60006020828403121561068557600080fd5b5051919050565b60006020828403121561069e57600080fd5b815180151581146106ae57600080fd5b9392505050565b600073ffffffffffffffffffffffffffffffffffffffff808a168352808916602084015280881660408401525085606083015263ffffffff8516608083015260c060a08301528260c0830152828460e0840137600060e0848401015260e07fffffffffffffffffffffffffffffffffffffffffffffffffffffffffffffffe0601f85011683010190509897505050505050505056fea264697066735822122047d15268d50dbef14cae0af680a27eea742877bf5a2260f2a44a87162995250a64736f6c634300080a0033",
  "devdoc": {
    "kind": "dev",
    "methods": {},
    "version": 1
  },
  "userdoc": {
    "kind": "user",
    "methods": {},
    "version": 1
  },
  "storageLayout": {
    "storage": [
      {
        "astId": 846,
        "contract": "contracts/manta/StakeHelper.sol:StakeHelper",
        "label": "_status",
        "offset": 0,
        "slot": "0",
        "type": "t_uint256"
      }
    ],
    "types": {
      "t_uint256": {
        "encoding": "inplace",
        "label": "uint256",
        "numberOfBytes": "32"
      }
    }
  }
}